:0C0000000C943D000C9400000C940000D7
:10000C000C9400000C9400000C9400000C94000064
:10001C000C9400000C9400000C9400000C94000054
:10002C000C9470000C9400000C9400000C940000D4
:10003C000C9400000C9400000C9400000C94000034
:10004C000C9400000C9400001027E80364000A00D4
:10005C000100001000011000010000000000000071
:10006C000100020066000400040068000000F8941F
:10007C00EE27ECBBF1E0FBBFEBBFE5BF8DE0A2E0F0
:10008C00BB27ED938A95E9F780E094E0A0E6ED9329
:10009C000197E9F7ECE6F0E085919591009761F016
:1000AC00A591B59105901590BF01F00105900D92A9
:1000BC000197E1F7FB01F0CFEFE5EDBFE4E0EEBF18
:1000CC00C0E6D1E00C949700D99B02C0D99801C02E
:1000DC00D99A08950A921A92FA926A937A938A9309
:1000EC009A93AA93BA93EA93FA93EFB7EA931A9373
:1000FC000A931BB10CB1E12FEC7119F4013309F423
:10010C00E3DF09911991E991EFBFF991E991B99167
:10011C00A9919991899179916991F9901990099086
:10012C001895E0E0EBB9E8E9EAB9E6E8E0BDE0E013
:10013C00E0BDE3E3E9B97894EFEFEABBFFCFFFCF83
:00000001FF
